:1000000002308A005D2A00002308DF3E03186329BE
:10001000213E6429A408031D0F2805121028051687
:100020008316051283126329A408031D19280510DD
:100030001A2805148316051083126329A408031DCA
:10004000232885102428851483168510831263299C
:10005000A408031D2D2805112E280515831605114A
:1000600083126329A408031D3728851138288515B4
:100070008316851183126329A408031D4128851264
:10008000422885168316851283126329A408031D4E
:100090004B2809104C280914831609108312632970
:1000A000A408031D55288910562889148316891021
:1000B00083126329A408031D5F280911602809150C
:1000C0008316091183126329A408031D69280610E9
:1000D0006A2806148316061083126329A408031DD8
:1000E0007328861074288614831686108312632959
:1000F000A408031D7D2806117E2806158316061107
:1001000083126329A408031D872886118828861571
:100110008316861183126329A408031D91280612F1
:10012000922806168316061283126329A408031D5B
:100130009B2886129C2886168316861283126329B2
:10014000A408031DA5280613A62806178316061360
:1001500083126329A408031DAF288613B0288617CD
:100160008316861383126329A408031DB928071078
:10017000BA280714201020088316870083126329E9
:10018000A408031DC5288710C6288714A0102008BE
:100190008316870083126329A408031DD128071141
:1001A000D22807152011200883168700831263299F
:1001B000A408031DDD288711DE288715A01120085B
:1001C0008316870083126329A408031DE9280712F8
:1001D000EA28071620122008831687008312632955
:1001E000A408031DF5288712F6288716A0122008F8
:1001F0008316870083126329A408031D01290713AE
:100200000229071720132008831687008312632909
:10021000A408031D0D2987130E298717A013200892
:100220008316870083126329A408031D1929081067
:100230001A2908148316081083126329A408031DC1
:10024000232988102429881483168810831263298F
:10025000A408031D2D2908112E290815831608113D
:1002600083126329A408031D3729881138298815AA
:100270008316881183126329A408031D41290812DB
:10028000422908168316081283126329A408031D45
:100290004B2988124C2988168316881283126329E9
:1002A000A408031D55290813562908178316081397
:1002B00083126329A408031D5F2988136029881706
:1002C00083168813831208000A148A100A11820701
:1002D0000A2814281E28282832283C284628502876
:1002E0005A2864286E28782882288C289628A028E6
:1002F000AA28B428C028CC28D828E428F028FC282C
:10030000082914291E29282932293C29462950293F
:100310005A29233084008313000803199D290130D2
:10032000F800F701F70B9229F80B91294A30F700F2
:10033000F70B98299B29800B8F290800A20122081E
:10034000203C031CA9292208A300A4010420A20A1E
:100350009F290800A1012108203C031CB62921087F
:10036000A3000130A4000420A10AAB290230A1009F
:100370009630A3008921A10BB8299E210230A1004B
:100380009630A3008921A10BC0298A110A126C2A78
:10039000A1012108103C031CDE292108A300013023
:1003A000A40004202108213CA200A3000130A400E5
:1003B00004206430A3008921A10AC9298A110A12E4
:1003C0006D2A9E210230A2009630A3008921A20B43
:1003D000E429A1012108103C031CFF292108A300E6
:1003E0000130A400042010302107A200A300013036
:1003F000A40004203230A3008921A10AEA298A112D
:100400000A126E2A9E210230A2009630A300892192
:10041000A20B052AA1012108203C031C202A210847
:10042000A3000130A40004203230A3008921210858
:10043000A300A40104203230A3008921A10A0B2AC1
:100440008A110A126F2AA1012108103C031C2F2ACD
:100450002108A3000130A4000420A10A242A0230AC
:10046000A2009630A3008921A20B312A9E210230DE
:10047000A2009630A3008921A20B392A1030A100D6
:100480002108203C031C4B2A2108A3000130A400B2
:100490000420A10A402A0230A2009630A30089213C
:1004A000A20B4D2A9E210230A2009630A300892182
:1004B000A20B552A8A110A12702A03081F398300D9
:1004C000FF30A00083161F149F141F159F110730C3
:1004D0009C0083138312AA29C829E129022A232A0E
:0404E0006B2A630020
:02400E00313F40
:00000001FF
;PIC16F877A
;CRC=577F  CREATED="31-Jul-24 18:48"
